S00D000043483337382E73726563EA
S31500000000501000209D260000B9230000AB260000FA
S31500000010AB260000AB260000AB260000AB26000096
S31500000020000000000000000000000000AB260000F9
S31500000030AB26000000000000AB260000AB26000047
S31500000040F11D00009F120000C71100006B13000095
S31500000050C3130000C91F00000000000000000000DC
S31500000060000000000000000000000000000000008A
S31500000070000000000000000000000000000000007A
S31500000080000000000000000000000000000000006A
S31500000090000000000000000000000000000000005A
S315000000A0000000000000000000000000000000004A
S315000000B0000000000000000000000000000000003A
S315000000C0000000000000000000000000000000002A
S315000000D0000000000000000000000000000000001A
S315000000E0000000000000000000000000000000000A
S315000000F000000000000000000000000000000000FA
S3150000010000000000000000000000000000000000E9
S3150000011000000000000000000000000000000000D9
S3150000012000000000000000000000000000000000C9
S3150000013000000000000000000000000000000000B9
S3150000014000000000000000000000000000000000A9
S315000001500000000000000000000000000000000099
S315000001600000000000000000000000000000000089
S315000001700000000000000000000000000000000079
S315000001800000000000000000000000000000000069
S315000001900000000000000000000000000000000059
S315000001A00000000000000000000000000000000049
S315000001B00000000000000000000000000000000039
S315000001C0FFFFFFFFFFFFFFFFFFFFFFFFFFFFFFFF39
S315000001D0FFFFFFFFFFFFFFFFFFFFFFFFFFFFFFFF29
S315000001E0FFFFFFFFFFFFFFFFFFFFFFFFFFFFFFFF19
S315000001F0FFFFFFFFFFFFFFFFFFFFFFFFFFFFFFFF09
S3150000020010B5054C237833B9044B13B1044800E00C
S3150000021000BF0123237010BD48030020000000002A
S315000002204857000008B5034B1BB10349034800E0DB
S3150000023000BF08BD000000004C0300204857000026
S3150000024080B485B000AF03460A46FB8013467B7137
S315000002507B79042B08D07B79062B05D07B79092B7B
S3150000026002D07B790B2B02D11E23FB7328E07B790E
S31500000270022B23D11C23FB73FB8803F003039BB2E1
S31500000280002B0BD1FB88124AA2FB031252096421F0
S3150000029001FB02F29B1A9BB2002B0CD1FB880C4A85
S315000002A0A2FB0312D2094FF4C87101FB02F29B1A9A
S315000002B09BB2002B04D11D23FB7301E01F23FB73AC
S315000002C0FB7B18461437BD465DF8047B704700BFBC
S315000002D01F85EB5180B582B000AF78607B68002B3C
S315000002E005D07B681B8840F2BC72934201D800237C
S315000002F04AE07B685B79002B07D07B685B79013B22
S31500000300DAB27B685A7101233EE07B683B225A7160
S315000003107B681B79002B07D07B681B79013BDAB21F
S315000003207B681A7101232FE07B6817221A717B689C
S31500000330DB78012B07D97B68DB78013BDAB27B6877
S31500000340DA70012320E07B689B78012B06D97B6855
S315000003509B78013BDAB27B689A7008E07B681B8861
S31500000360013B9AB27B681A807B680C229A707B6884
S315000003701A887B689B7819461046FFF761FF03468B
S315000003801A467B68DA70012318460837BD4680BDD9
S3150000039080B483B000AF786039607B68002B02D0F0
S315000003A03B68002B01D1002327E07B681A883B6855
S315000003B01B889A421FD17B689A783B689B789A4241
S315000003C019D17B68DA783B68DB789A4213D17B686F
S315000003D01A793B681B799A420DD17B685A793B683A
S315000003E05B799A4207D17B689A793B689B799A42F6
S315000003F001D1012300E00023DBB218460C37BD46CD
S315000004005DF8047B7047FFFFF0B587B004AF02F0DC
S315000004104DFF0346894A9360002003F0A1FE034680
S31500000420002B00D0FEE7854B9B68002B04D102F021
S31500000430DBFF0346814AD36002F08AFF7F4B9B684D
S31500000440002B40F0CF807E4802F0AEFF0346002B23
S3150000045000F0C880794B01221A7602F0EFFF0346BE
S31500000460764A1361754B07225A61764B754A03F536
S31500000470816302F202421068186092889A80714B7A
S31500000480002283F810246F4B0022A3F80E2460E0AC
S315000004906C4BB3F808046B4B93F80A14694B93F84A
S315000004A00B24684B93F80C44664B93F80D34664D59
S315000004B003954FF480650295624D0195009323469E
S315000004C003F0BAFF03461A465C4B5A705B4B5B78E7
S315000004D0002B27D15B4BB3F80E34002B01D1002340
S315000004E000E03B23FB71574B93F81034C3F10A032A
S315000004F0BB71BA79F979554B524802F0A9FF034608
S315000005004E4A53614D4B5B69002B2ED14D4B93F8F0
S3150000051010244C4B93F811341344DAB2494B83F848
S31500000520102403E0454B5B78422B20D1454B93F8D2
S315000005301034092B05D84648FFF7CCFE0346002B9E
S3150000054017D0404BB3F80E3401339AB23D4BA3F8A3
S315000005500E243C4BB3F80E34B3F5B46F0AD2394BC4
S3150000056093F81034092B93D904E000BF02E000BFD2
S3150000057000E000BF314B1B69002B03D02F4B052237
S315000005801A7623E02D4B5B69002B07D02B4B5B695A
S31500000590072B03D0294B05221A7617E0274B5B78E9
S315000005A0002B07D0254B5B78422B03D0234B04222C
S315000005B01A760BE0234B93F81034002B03D11F4B14
S315000005C003221A7602E01D4B02221A76214802F017
S315000005D013FF02F009FF0346184AD3601D4B0022A1
S315000005E01A8270E01B4802F007FF0346002B6AD010
S315000005F0184B9B7C002B06D017491648FFF7C8FE00
S315000006000346002B5FD1134BDB7C1946114BDB7C79
S315000006101A46104BDB7C019300920B460F4A402191
S315000006200F4804F0C3F938603B68002B02DB3B68D7
S315000006303F2B17D9014B03221A7044E0000000201B
S315000006406607002064030020640700207507002069
S315000006506C070020780700208007002078530000F0
S315000006608C070020264B1888254B9978244BDC787C
S31500000670234B1D79224B5B79214A9279214E0296B2
S31500000680019200932B46224603F090FD03461A463C
S315000006901D4B1A701C4B1B78002B14D1184B184A93
S315000006A0083392E8030083E80300154B01229A748D
S315000006B0134BDB7C0133DAB2114BDA74124B5B68F5
S315000006C00133114A53600E4B1B8A01339AB20C4B0D
S315000006D01A820B4B1B8A1D2B0BD9094B00221A823F
S315000006E0094B9B68002B04D102F07EFE0346064AA6
S315000006F0D3604FF47A710A2001F08EFD9CE600BFAC
S31500000700780700208C0700200000002080B582B00A
S3150000071000AF0346FB71FB79022B05D1044B5B68E6
S315000007201946044800F028FF00BF0837BD4680BDC3
S31500000730B4530000DC07002080B500AFFFF764FE6D
S315000007400023184680BD80B483B000AFEFF3038367
S315000007507B607B683B603B88C3F308039BB2DBB2DC
S31500000760103BDBB25BB218460C37BD465DF8047B26
S315000007707047FFFF80B487B000AF0346FB710E4B96
S315000007801B6A7B617B691B0E03F007033B61FB79E8
S315000007907A6922FA03F303F00703FB60074B1A6832
S315000007A03B699A40FB6822FA03F318461C37BD469C
S315000007B05DF8047B704700BF00E00140E4090020BB
S315000007C080B483B000AF03463960FB7197F90730F8
S315000007D004493A6841F8232000BF0C37BD465DF84E
S315000007E0047B70475808002080B483B000AF0346EE
S315000007F0FB71084997F9073003F1C00251F822301E
S315000008006FF3104341F8223000BF0C37BD465DF848
S31500000810047B70470060004080B584B000AF03469B
S31500000820FB7197F907301846FFF7DEFF97F9073097
S31500000830FB60FB6803F01F02064997F907305B0966
S31500000840012000FA02F2603341F8232000BF10377E
S31500000850BD4680BD00E100E080B584B000AF034630
S31500000860B9607A60FB73BB68DAB2094997F90F3051
S315000008701201D2B20B4483F8002397F90F3079683E
S315000008801846FFF79DFF00BF1037BD4680BD00BF6D
S3150000089000E100E080B485B000AF0346FB7197F934
S315000008A00730FB60FB6803F01F02074997F9073022
S315000008B05B09012000FA02F241F8232000BF143739
S315000008C0BD465DF8047B704700E100E080B582B06C
S315000008D000AF0346FB7197F907301846FFF79CFFF8
S315000008E097F907301846FFF7D5FF00BF0837BD4612
S315000008F080BDFFFF80B485B000AF0346FB7197F95A
S315000009000730FB60FB6803F01F020B4997F90730BD
S315000009105B09012000FA02F2203341F82320BFF3DD
S315000009204F8F00BFBFF36F8F00BF00BF1437BD46A8
S315000009305DF8047B704700BF00E100E080B483B03F
S3150000094000AF0346FB7197F90730044A52F823308B
S3150000095018460C37BD465DF8047B704758080020E2
S3150000096080B58AB000AF786039607B687B623B688F
S315000009701B7803F5800303F58C531B021A467B6A2A
S315000009801A627B6A00221A707B6A3A68DA613B68EF
S315000009905A697B6A5A623B689A697B6ADA627B6A41
S315000009A000229A627A6A9378012161F301039370B7
S315000009B03B685B78002B05D17A6A9378022161F354
S315000009C0010393703968786A00F069FB786A00F071
S315000009D0AFFA00233B62EFF31083FB60FB683B62D8
S315000009E001233B613B6983F3108800BF474B5A687C
S315000009F03B681B7819464FF00043CB40DB43434925
S31500000A0013404B60414B5B683B6A7B617B6983F3B8
S31500000A10108800BF7B6A1B6A00229A707B6A1B6A79
S31500000A2000221A717B6A1B6A00225A727B6A1B6A51
S31500000A3000229A727B6A1B6A0022DA727B6A1B6A40
S31500000A4000225A833B681B781A4640F2F933D3409A
S31500000A5003F00103002B03D07B6A1B6A4022DA7481
S31500000A607B6A1B6A06221A773968786A00F06AFA86
S31500000A707B6A0022DA607B6A00221A617B6A0022A6
S31500000A805A617B6A00229A613B68DB69FB61FB69FC
S31500000A901B7803F00303BB61BB6943F01003BB6122
S31500000AA07B6ADB6993F905301846FFF70FFF7B6A0F
S31500000AB0DB6993F90B301846FFF708FFBB6943F073
S31500000AC04003BB617B6ADB6993F907301846FFF781
S31500000AD0FDFE7B6ADB6993F909301846FFF7F6FEDF
S31500000AE0BB6943F02003BB617B6A1B6ABA69D2B259
S31500000AF09A70FB695A897B6A1A817B6A044A5A6032
S31500000B00002318462837BD4680BD00BF0040084078
S31500000B105549435380B588B000AF78607B68FB6168
S31500000B20FB6900225A60FB691B6A00229A70FB6906
S31500000B30DB6993F905301846FFF7DCFEFB69DB69D4
S31500000B4093F90B301846FFF7D5FEFB69DB6993F97D
S31500000B5007301846FFF7CEFEFB69DB6993F90930CB
S31500000B601846FFF7C7FE0023BB61EFF31083FB6057
S31500000B70FB68BB6101233B613B6983F3108800BFBF
S31500000B800D4B5A68FB69DB691B7819464FF0004329
S31500000B90CB40094913434B60074B5B68BB697B61DC
S31500000BA07B6983F3108800BFF86900F0C1F9002360
S31500000BB018462037BD4680BD0040084080B487B047
S31500000BC000AFF860B9607A60FB687B617B691B6A7D
S31500000BD09B78DAB27B691B6A02F07B02D2B29A700A
S31500000BE07B699B78C3F30103DBB21A467B689A1ACA
S31500000BF07B691A617B699B78C3F30103DBB21A46F2
S31500000C00BB681A447B69DA607B691B6A9B78DAB237
S31500000C107B691B6A62F07F02D2B29A707B699B780D
S31500000C2003F00303DBB2022B0AD1BB681B887A6987
S31500000C30126A6FEAC3536FEAD3539BB2D38104E0BF
S31500000C407B691B6ABA681278DA70002318461C376B
S31500000C50BD465DF8047B704780B584B000AF786010
S31500000C6039607B68FB60FB681B6A9B78DBB203F02C
S31500000C707B03FB72FB681B6AFA7A22F07002D2B21F
S31500000C809A70FB680022DA60FB681B6A39681846AE
S31500000C9000F032FAFB681B6AFA7A9A70002318464B
S31500000CA01037BD4680BD80B584B000AF78600B4676
S31500000CB0FB707B68BB600623FB60FB7803F00203D6
S31500000CC0DBB2002B16D00023FB60BB681B6A9B7847
S31500000CD0DAB2BB681B6A02F07B02D2B29A70BB68BA
S31500000CE000221A61B86800F023F9FB68002B01D0D6
S31500000CF0FB680BE0FB7803F00103DBB2002B04D0AA
S31500000D000023FB60BB6800229A61FB681846103717
S31500000D10BD4680BD2DE9B04F90B000AF7861FA6056
S31500000D20BB600B46FB74BB68FF229A70BA681378E7
S31500000D306FF382031370BB688022DA70794BFB6312
S31500000D400023BB6300233B620C20FFF713FDF86111
S31500000D5000237B63D1E000233B63C7E07B6BDBB200
S31500000D6071493A6B0A441278C2F34002D1B26E4816
S31500000D703A6B02441278C2F38002D2B20A43D2B26C
S31500000D80934240F0AB80694A3B6B32F813301A4607
S31500000D907B6902FB03F33B62FA693B6AB2FBF3F33E
S31500000DA0FB62FB6AB3F5807F00F29D8091E0FB6AEF
S31500000DB0013BFB62FB6A01333A6A02FB03F3BB6148
S31500000DC0FB69002298469146564BDA179A46934697
S31500000DD00AFB09F208FB0BF31344A8FB0A452B4454
S31500000DE01D46BB69DA173B607A60D7E900232046C7
S31500000DF0294603F0F7FB02460B464A4BD31ABB6261
S31500000E0000237B62FB7C002B15D0BA69FB691B0AA9
S31500000E10B2FBF3F37B627B6A7F2B61D9414ABB6AE3
S31500000E2013447A6A02FB03F34FF4807293FBF2F3E6
S31500000E303C4A9B1ABB62BB6A002B02DABB6A5B4266
S31500000E40BB62BA6AFB6B9A4237DA374A3B6B13448A
S31500000E501B78C3F30003D9B2BA68137861F386131B
S31500000E601370314A3B6B13441B78C3F34003D9B26A
S31500000E70BA68137861F3041313702B4A3B6B13445F
S31500000E801B78C3F38003D9B2BA68137861F3C3033E
S31500000E901370254A3B6B13441B78C3F3C103D9B2C5
S31500000EA0BA68537861F301035370FB6ADAB2BB6820
S31500000EB09A70BB6AFB637B6ABB63FB7C002B11D019
S31500000EC0BA68137843F004031370BB6BDAB2BB68DD
S31500000ED0DA70FB6A002B7FF46AAF04E000BF02E021
S31500000EE000BF00E000BF3B6B01333B633B6B0C2B49
S31500000EF07FF634AF7B6B01337B637B6B012B04D8AE
S31500000F00FB68FA6B9A423FF726AFFB68FA6B9A4288
S31500000F1001DD032300E0002318464037BD46BDE847
S31500000F20B08F00BFA08601006C5500007C55000004
S31500000F3080B483B000AF786000BF0C37BD465DF863
S31500000F40047B704780B586B000AF786039603B6837
S31500000F501B781A4640F2F933D34003F00103002B05
S31500000F6004D07B681B6A4FF478429A823B689B7870
S31500000F701A013B68DB78DB0013437B61F2233B619C
S31500000F803B685B78032B04D17B6943F040037B61AC
S31500000F9007E03B685B78002B03D13B6923F0100325
S31500000FA03B617B681B6A7A69D2B21A707B681B6ADE
S31500000FB03A69D2B29A713B68DB69BB60BB681B7B3E
S31500000FC0082B04D17B681B6A0A225A7309E0BB68A6
S31500000FD01B7B5B00DAB27B681B6A02F00202D2B2AC
S31500000FE05A730023FB60BB685B78DB01DBB2FA68EF
S31500000FF01343FB60BB689B785B0103F02003FA6830
S315000010001343FB607B681B6A00221A72BB681B785D
S31500001010022B03D0BB681B78032B11D17B681B6A9C
S31500001020FF225A70BB681B78022B03D1FB6843F082
S315000010301003FB607B681B6AFA68D2B2DA710DE0B6
S315000010407B681B6AFA68D2B2DA717B681A6ABB6877
S315000010505B681946104600F04FF800BF00BF18370E
S31500001060BD4680BD80B582B000AF78600B46FB7090
S315000010701346BB7097F902301846FFF73BFC97F909
S3150000108002301846FFF7B0FBF97897F902307A6814
S315000010901846FFF7E1FB00BF0837BD4680BD80B5A7
S315000010A082B000AF786039603B68997A3B6893F903
S315000010B00B301A467868FFF7D5FF3B6819793B680D
S315000010C093F905301A467868FFF7CCFF3B689979A3
S315000010D03B6893F907301A467868FFF7C3FF3B6809
S315000010E0197A3B6893F909301A467868FFF7BAFF10
S315000010F000BF0837BD4680BD80B483B000AF7860BE
S3150000110039603B689A787B685A703B685B78C3F3B2
S315000011100103D9B27A68137861F3010313703B684F
S31500001120DA787B689A747B68DB79DBB223F05C0340
S31500001130DAB23B681B7803F05C03DBB21343DAB226
S315000011407B68DA7100BF0C37BD465DF8047B7047DB
S3150000115090B58BB000AFF860B9601346FB71FB68C1
S315000011609B6A7B627B6A002B03D107F114037B62C7
S3150000117005E07B6A07F114040FCB84E80F00FB68D7
S31500001180DB691B781A467B6A1A607B6ABA689A60C2
S315000011907B6AFA791A71FB68DA6A7B6ADA60FB683D
S315000011A05B6A786A9847FB689B6A002B07D0FB68E6
S315000011B09B6A1C4607F114030FCB84E80F0000BF9F
S315000011C02C37BD4690BD80B584B000AFFFF7BBFAA3
S315000011D00346FB7397F90F301846FFF705FB97F99F
S315000011E00F301846FFF7AAFBB860BB68DB691B69BE
S315000011F0002B30D1BB681B69002B2CD0BB689B78B9
S3150000120003F00303DBB2022B0BD1BB68DB681B8840
S31500001210BA68126A6FEAC3536FEAD3539BB2D3819B
S3150000122005E0BB68DA68BB681B6A1278DA70BB68CF
S315000012301B69BA689278C2F30102D2B29A1ABB68E5
S315000012401A61BB68DB68BA689278C2F30102D2B24F
S315000012501A44BB68DA60BB681B69002B1BD1BB68EC
S315000012601B6A9B78FB71FB7943F00403FB71FB79E6
S3150000127003F07F03FB71BB681B6AFA799A70BB683F
S315000012800022DA60BB685B6A002B04D08022002152
S31500001290B868FFF75DFF00BF1037BD4680BD80B55B
S315000012A084B000AFFFF74FFA0346FB7397F90F3090
S315000012B01846FFF799FA97F90F301846FFF73EFBE5
S315000012C0B860BB689B7803F00303DBB2022B07D13F
S315000012D0BB681B6A1B8A9BB2C3F308037B6004E0EE
S315000012E0BB681B6A5B79DBB27B60BB689B69002BC2
S315000012F00AD1BB685B6A002B33D07B68042219468F
S31500001300B868FFF725FF2CE0BB685869BB689B7877
S31500001310C3F30103DBB21A463B1D194603F030FB4B
S31500001320BB685B69BA689278C2F30102D2B21A440A
S31500001330BB685A61BB689B69BA689278C2F30102BE
S31500001340D2B29A1ABB689A61BB689B69002B08D116
S31500001350BB685B6A002B04D001220021B868FFF746
S31500001360F7FE00BF1037BD4680BD80B582B000AF26
S31500001370FFF7E9F90346FB7197F907301846FFF7BF
S31500001380DDFA38603B681B6A9B78DAB23B681B6AF9
S3150000139002F07B02D2B29A703868FFF7C9FD3B684B
S315000013A05B6A002B04D0022200213868FFF7D0FECA
S315000013B097F907301846FFF717FA00BF0837BD46FA
S315000013C080BD80B584B000AFFFF7BDF90346BB72A0
S315000013D097F90A301846FFF7B1FA78600023FB60E8
S315000013E07B689B7803F00303DBB2022B07D17B6893
S315000013F01B6A1B8A9BB2C3F30803FB6004E07B688D
S315000014001B6A5B79DBB2FB607B681B6A1B79DBB20C
S3150000141003F03803FB72FB7A03F01003002B0BD0AA
S315000014207B681B6A1B7FC3F30003DBB2002B03D16F
S31500001430FB7A43F04003FB727B681B6A1B79DAB2C6
S315000014407B681B6A22F03802D2B21A717868FFF7FD
S315000014506FFD7B685B6A002B05D0FB7A1A46F9683C
S315000014607868FFF775FE97F90A301846FFF7BCF95A
S3150000147000BF1037BD4680BD80B483B000AF0346C1
S31500001480FB800A49FB881B0A9BB21A46FB88DBB223
S315000014901201134451F82330C3F34003DBB218465C
S315000014A00C37BD465DF8047B704700BF0008084056
S315000014B080B485B000AF0023FB60EFF310837B6040
S315000014C07B68FB600123BB60BB6883F3108800BFA9
S315000014D00D4B1B68002B05D10C4B0022DA700B4B11
S315000014E04022DA70084B1B680133074A1360FB6819
S315000014F03B603B6883F3108800BF00BF1437BD46CE
S315000015005DF8047B704700BF54080020000D0840BA
S3150000151080B485B000AF0023FB60EFF310837B60DF
S315000015207B68FB600123BB60BB6883F3108800BF48
S315000015300F4B1B68002B04D00D4B1B68013B0C4A5C
S3150000154013600B4B1B68002B05D10A4B0022DA7087
S31500001550084B8022DA70FB683B603B6883F3108897
S3150000156000BF00BF1437BD465DF8047B704700BF5F
S3150000157054080020000D084080B584B000AF7860A4
S3150000158039607B68FB60FB68044A1A60386800F0C3
S31500001590DDF9002318461037BD4680BD54524F5022
S315000015A080B485B000AF78607B68FB60FB68002282
S315000015B01A60002318461437BD465DF8047B704751
S315000015C080B582B000AF78603960386800F0BEF947
S315000015D0002318460837BD4680BD80B588B000AFE9
S315000015E0F8600B467A607B817B89BB827B683B61B6
S315000015F001233B8307F11003FB6107F1180318462B
S3150000160000F050FAFFF754FF7B897968184600F01E
S315000016100DFAFFF77DFF002318462037BD4680BD33
S3150000162080B584B000AFF8600B467A607B817B8919
S315000016301846FFF721FF0346DAB27B681A700023CB
S3150000164018461037BD4680BD80B487B000AFF8603D
S315000016500B467A607B817B891B0A9BB2DBB25B01FE
S3150000166003F1804303F500237B617B695B689AB2D3
S315000016707B681A80002318461C37BD465DF8047B3C
S31500001680704780B487B000AFF860084611461A4626
S3150000169003467B810B463B811346FB803A89FB88D8
S315000016A01340FB82B7F90830DB431AB2B7F90630AC
S315000016B013401BB2BB827B891B0A9BB2DBB25B0168
S315000016C003F1804303F500233B61BB8A1A04FB8ABE
S315000016D01A433B699A60002318461C37BD465DF8DD
S315000016E0047B704780B487B000AF78600B467B8080
S315000016F013467B700023FB820023BB827B8823F08A
S31500001700FF037B827B88DBB23B823B8A012202FAA3
S3150000171003F3FB817B78002B02D1FB89BB8201E0BE
S31500001720FB89FB827B8A1B0A9BB2DBB25B0103F15E
S31500001730804303F50023BB60BB8A1A04FB8A1A4365
S31500001740BB689A60002318461C37BD465DF8047BCB
S31500001750704780B48BB000AFF860084611461A4651
S3150000176003467B810B463B811346FB807B891B0A24
S315000017709BB2DBB25B0103F1804303F500237B627E
S315000017807B6A1B683B623A89FB8813409BB2FB610C
S315000017903B89DA43FB881340BB613B6A7B617A690C
S315000017A0FB6913437B61BB69DB437A6913407B6149
S315000017B07B6A7A691A60002318462C37BD465DF8A5
S315000017C0047B704780B487B000AFF8600B467A6040
S315000017D07B817B891B0A9BB2DBB25B0103F18043F1
S315000017E003F500237B617B695B68C3F30F439AB201
S315000017F07B681A80002318461C37BD465DF8047BBB
S31500001800704780B487B000AFF8600B467A607B8182
S315000018107B891B0A9BB2DBB25B0103F1804303F5B4
S3150000182000237B617B695B68C3F30F437B827B8903
S31500001830DBB2012202FA03F33B827A8A3B8A134027
S315000018409BB23A8A9A4203D17B6801221A7002E05F
S315000018507B6800221A70002318461C37BD465DF8C7
S31500001860047B704780B487B000AFF8600846114625
S315000018701A4603467B810B463B811346FB803A8919
S31500001880FB881340FB82B7F90830DB431AB2B7F97D
S31500001890063013401BB2BB827B891B0A9BB2DBB2AC
S315000018A05B0103F1804303F500233B61BB8A1A0405
S315000018B0FB8A1A433B69DA60002318461C37BD468B
S315000018C05DF8047B704780B584B000AF78600B4646
S315000018D07B8013467B707B887B817B8923F0FF03AB
S315000018E07B817B893B810023FB810023BB817B7845
S315000018F0012B06D17B88DBB2012202FA03F3FB81BE
S3150000190005E07B88DBB2012202FA03F3BB817B7818
S31500001910BA89F989388900F044F800231846103747
S31500001920BD4680BD80B483B000AF78600B46FB70C7
S315000019301346BB70044ABB781370002318460C3755
S31500001940BD465DF8047B7047000D084080B584B045
S3150000195000AF7860786800F0A5F87B68BB60FFF799
S31500001960A7FD0023FB8111E0BB685A68FB89DB00F9
S3150000197013449888BB685A68FB89DB0013441B68CC
S31500001980194600F053F8FB890133FB81BB681B88BD
S31500001990FA899A42E8D3FFF7BBFD00BF1037BD4670
S315000019A080BD90B484B000AF0446084611461A467E
S315000019B02346FB800346BB800B467B8013467B7029
S315000019C00023FB60FB881B0A9BB2DBB25B0103F1C1
S315000019D0804303F50023BB60BB68DB68FB607B7854
S315000019E0012B0DD1BB88FA681343FB607B881B046F
S315000019F06FEA13436FEA0343FA681340FB600CE097
S31500001A007B881B04FA681343FB60BB886FEA0343B9
S31500001A106FEA1343FA681340FB60BB68FA68DA6042
S31500001A2000BF1037BD4690BC7047FFFF80B483B03F
S31500001A3000AF03463960FB803B6803F48033002B1C
S31500001A401CD01749FB881B0A9BB21A46FB88DBB2DF
S31500001A5012011A4451F822306FF3104341F8223034
S31500001A600F48FB881B0A9BB21946FB88DBB23A6813
S31500001A7022F4803209010B4440F823200849FB88F0
S31500001A801B0A9BB21A46FB88DBB2120113443A6862
S31500001A9041F8232000BF0C37BD465DF8047B704734
S31500001AA00008084080B586B000AF78600023FB735D
S31500001AB00023BB7300237B6139E000233B6130E0E8
S31500001AC07B685A687B69DB0013449A8829493B691D
S31500001AD031F813309A4221D17B685A687B69DB0062
S31500001AE013441B6803F0F853BB60BB68B3F1807FF7
S31500001AF003D0BB68B3F1106F08D101223B6902FA2B
S31500001B0003F3DAB2FB7B1343FB7307E001223B6965
S31500001B1002FA03F3DAB2BB7B1343BB733B690133AF
S31500001B203B613B69022BCBD97B6901337B617B68C7
S31500001B301B881A467B699342BFD3012000F030FD13
S31500001B400D4B93F8BB347B737A7BFB7B13437B7320
S31500001B50BB7BDB43DAB27B7B13407B73064A7B7B22
S31500001B6082F8BB34012000F0CBFC00BF1837BD461D
S31500001B7080BD00BFD055000000E0014080B483B0B6
S31500001B8000AFEFF303837B607B683B603B88C3F366
S31500001B9008039BB2DBB2103BDBB25BB218460C37D4
S31500001BA0BD465DF8047B704780B483B000AF034642
S31500001BB03960FB7197F9073004493A6841F82320E8
S31500001BC000BF0C37BD465DF8047B704758080020FF
S31500001BD080B483B000AF0346FB71084997F907301C
S31500001BE003F1C00251F822306FF3104341F822305E
S31500001BF000BF0C37BD465DF8047B704700600040AF
S31500001C0080B584B000AF0346FB7197F907301846DC
S31500001C10FFF7DEFF97F90730FB60FB6803F01F0252
S31500001C20064997F907305B09012000FA02F2603392
S31500001C3041F8232000BF1037BD4680BD00E100E01B
S31500001C4080B584B000AF0346B9607A60FB73BB68A9
S31500001C50DAB2094997F90F301201D2B20B4483F870
S31500001C60002397F90F3079681846FFF79DFF00BFEC
S31500001C701037BD4680BD00BF00E100E080B485B0EE
S31500001C8000AF0346FB7197F90730FB60FB6803F072
S31500001C901F02074997F907305B09012000FA02F293
S31500001CA041F8232000BF1437BD465DF8047B70471A
S31500001CB000E100E080B582B000AF0346FB7197F902
S31500001CC007301846FFF79CFF97F907301846FFF7CD
S31500001CD0D5FF00BF0837BD4680BDFFFF80B483B087
S31500001CE000AF0346FB7197F90730044A52F82330D8
S31500001CF018460C37BD465DF8047B7047580800202F
S31500001D0080B586B000AF786039607B687B613B68E0
S31500001D1093F902207B691A712A4A7B6993F9043088
S31500001D20C03352F823303B61264A7B6993F904306D
S31500001D30C033002142F823103B689A687B699A6099
S31500001D403B68DA687B69DA603B681A787B695A71A6
S31500001D501C4A7B695B790021D1543B681B791B01C6
S31500001D60FB733B685B79DB01DAB2FB7B1343FB73E6
S31500001D703B68DA78FB7B1343FB73124A7B695B791A
S31500001D801946FB7B53540F497B6993F90430C033E2
S31500001D903A6941F823207B6993F90430002B08DB6C
S31500001DA07B6993F904003B685B787A691946FFF70B
S31500001DB047FF7B69044A1A60002318461837BD4658
S31500001DC080BD00BF006000405543490080B584B027
S31500001DD000AF78607B68FB60FB6893F904301846B7
S31500001DE0FFF768FF002318461037BD4680BDFFFF8A
S31500001DF080B584B000AFFFF7C1FE0346BB7397F909
S31500001E000E301846FFF76AFFB8600023FB73174AC7
S31500001E10BB685B79D35CC3F30103DBB2032B02D14E
S31500001E200123FB7304E097F90E301846FFF7D0FE46
S31500001E30BB68002B0ED0BB689B68002B0AD0BB6822
S31500001E405B797B60BB68DB683B60BB689B683A4636
S31500001E5010469847FB7B002B04D097F90E301846A6
S31500001E60FFF7B6FE00BF1037BD4680BD00600040DC
S31500001E7080B483B000AFEFF303837B607B683B6085
S31500001E803B88C3F308039BB2DBB2103BDBB25BB209
S31500001E9018460C37BD465DF8047B704780B483B0A6
S31500001EA000AF0346FB71084997F9073003F1C002FA
S31500001EB051F822306FF3104341F8223000BF0C373F
S31500001EC0BD465DF8047B70470060004080B584B075
S31500001ED000AF0346FB7197F907301846FFF7DEFFA0
S31500001EE097F90730FB60FB6803F01F02064997F974
S31500001EF007305B09012000FA02F2603341F8232023
S31500001F0000BF1037BD4680BD00E100E080B483B05D
S31500001F1000AF0346FB7197F90730044A52F82330A5
S31500001F2018460C37BD465DF8047B704758080020FC
S31500001F3080B483B000AF7860396000BF0C37BD460F
S31500001F405DF8047B704780B483B000AF78600023EF
S31500001F5018460C37BD465DF8047B704790B589B0CE
S31500001F6000AFF8600B467A60FB72FB689B69FB6109
S31500001F70FB69002B03D107F11003FB6105E0FA6949
S31500001F8007F1100307CA83E80700FB69FA7A1A719A
S31500001F90FB697A689A60FB68DA69FB691A60FB6814
S31500001FA05B69F8699847FB689B69002B08D0FB685A
S31500001FB09B691C4607F1100393E8070084E80700B5
S31500001FC000BF2437BD4690BD80B584B000AFFFF793
S31500001FD04FFF0346FB7397F90F301846FFF75EFF76
S31500001FE097F90F301846FFF791FFB860BB685B683A
S31500001FF01B78012B20D1B868FFF7A5FF7860BB6876
S315000020009B68BA68D2689A60BB689B6800229A642B
S31500002010BB689B680022DA64BB689B6800221A656D
S315000020207B6843F425431946B868FFF781FF97F9A3
S315000020300F301846FFF74AFFBB685B69002B04D0D8
S3150000204000220021B868FFF789FF00BF1037BD46A0
S3150000205080BDFFFF80B400AF0C4B0122A3F8042122
S3150000206000BF0A4BB3F804319BB2002BF9D1074BE2
S315000020700122A3F80021064B01229A60044B01229B
S315000020801A6000BFBD465DF8047B704700C0014082
S315000020900070004080B483B000AF0B4B93F826303D
S315000020A0DBB27B60094A7B6852F82330064A126A23
S315000020B0C2F30262D2B2D340054A136000BF0C37A6
S315000020C0BD465DF8047B704700E001402C0300200C
S315000020D0E409002080B500AF074B032283F81C21DA
S315000020E0064B052283F82620044B054A1A62FFF7A1
S315000020F0D1FF00BF80BD00BF00C0014000E001402D
S315000021002112012080B500AF0B4B0C4A1A600A4B16
S315000021100B4A5A60084B4FF400429A60064B094A34
S31500002120DA60054B4FF400421A61034B064A5A61C6
S31500002130FFF7B0FF00BF80BD2C030020002D31014A
S3150000214000127A0000366E0100C2EB0B80B500AFBC
S315000021502B4B4AF20352A3F8FE23FFF77BFFFFF750
S31500002160D1FF274B002283F81324254B092283F83D
S31500002170A220234B93F88034DBB2002B08D1204BEE
S31500002180012283F88024012140F2C44000F044F883
S315000021901B4B002283F88124194B002283F88024EC
S315000021A0174B002283F8322000BF154B93F83C30C2
S315000021B0C3F3C003DBB2012BF7D1114B43F202127A
S315000021C01A850F4B002283F82A2000BF0C4B93F888
S315000021D03C30C3F34013DBB2012BF7D1FFF77AFF94
S315000021E0074B012283F83020054B012283F8522049
S315000021F0034B4FF42542A3F8FE2300BF80BD00BF6A
S3150000220000E0014080B483B000AF786000BF0C37B7
S31500002210BD465DF8047B70472DE9B04F90B000AF26
S31500002220F861B9610023FB63FB69BA6902FB03F33A
S31500002230BB63504B1B687B634F4A7B6BB2FBF3F36C
S315000022403B63BB6B00223B617A61D7E904234FF005
S3150000225000004FF00001590141EAD26150010246E7
S315000022600B463969B2EB0108796963EB01094FF056
S3150000227000024FF000034FEA890343EA98734FEADE
S31500002280880290469946D7E904120B4618EB0303D9
S315000022903B60134649EB03037B604FF000024FF0AF
S315000022A00003D7E900894946CB00414643EA51730A
S315000022B04146CA00C7E90A23D7E90A23012B08D2F7
S315000022C0BA6A3B6BB2FBF3F37B627B6A9B08FB63E8
S315000022D044E03B6B9B00BA6BB2FBF3F3BB63BB6B97
S315000022E00022BB60FA60D7E9028942464B464FF0AE
S315000022F000004FF00001590141EAD2615001024647
S315000023000B464146541A494663EB01054FF000025D
S315000023104FF00003AB0043EA9473A20014461D4637
S31500002320434614EB030A4B4645EB030B4FF0000202
S315000023304FF000034FEACB0343EA5A734FEACA024F
S3150000234092469B46C7E90AABD7E90A23012B02D27C
S31500002350BB6AFB6302E04FF0FF33FB63FB6B002BB2
S3150000236002D0F86B00F00AF800BF4037BD46BDE862
S31500002370B08F00BFE409002000CA9A3BA0F101001B
S315000023800028FBD1704700BF80B582B000AF03467E
S31500002390FB71FB79074A52F82330002B06D0FB79F4
S315000023A0044A52F82330FA791046984700BF083796
S315000023B0BD4680BD1408002080B582B000AF104B2A
S315000023C0B3F84031BB800023FB710EE0BA88FB797D
S315000023D022FA03F303F00103002B03D0FB7918461E
S315000023E0FFF7D2FFFB790133FB71FB790F2BEDD998
S315000023F0034ABB88A2F8303100BF0837BD4680BD0E
S315000024000060004080B58AB000AF032000F0C8F835
S31500002410364B6FF0FF029A643B1D0C22FF211846D3
S3150000242002F0BBFA00237B6221E0314A7B6A32F874
S315000024301330002B18D07B6A5B097B617B6A03F043
S315000024401F033B617B699B0028333B4453F8242CD4
S3150000245001213B6901FA03F3DB431A407B699B00C8
S3150000246028333B4443F8242C7B6A01337B627B6A26
S315000024705F2BDAD91F4BBB6100233B6218E03B6A36
S315000024809B00BA691A443B6A9B0028333B4453F8C5
S31500002490243C136018493B6A9B0028333B4453F89D
S315000024A0242C3B6AA03341F823203B6A01333B626C
S315000024B03B6A022BE3D9032000F022F80023FB61DC
S315000024C00CE00B4AFB6932F813300C4A1946FB69DB
S315000024D0C03342F82310FB690133FB61FB695F2BB4
S315000024E0EFD900BF00BF2837BD4680BD0080004041
S315000024F0AC5400007080004000E100E00060004045
S3150000250080B487B000AF0346FB7100237B61EFF315
S315000025101083FB60FB687B6101233B613B6983F3AE
S31500002520108800BFFB791A4A32F813309BB2002B91
S3150000253009D0FB79164A32F8132092B2013A91B2C9
S31500002540134A22F81310FB79114A32F813309BB262
S31500002550002B11D10F4BB3F8FE339AB20E4B134337
S315000025609AB2FB790D4931F81330DB439BB2094926
S3150000257013409BB2A1F8FE337B69BB60BB6883F353
S31500002580108800BF00BF1C37BD465DF8047B70474E
S31500002590D809002000E0014000A5FFFFD855000043
S315000025A080B487B000AF0346FB7100237B61EFF375
S315000025B01083FB60FB687B6101233B613B6983F30E
S315000025C0108800BFFB79164A32F813309BB2002BF5
S315000025D00FD1144BB3F8FE339AB2FB79124931F896
S315000025E0133013439AB20F49104B13439BB2A1F811
S315000025F0FE33FB790A4A32F8132092B2013291B2C5
S31500002600074A22F813107B69BB60BB6883F3108806
S3150000261000BF00BF1C37BD465DF8047B704700BF96
S31500002620D809002000E00140D855000000A5FFFFB2
S3150000263080B584B000AF78607B68FB60144B1B6884
S31500002640002B02D1124B134A1A60114B1B68BB6058
S31500002650FB68033323F00303FB600D4B1A68FB682A
S3150000266013440D4A934207D902F084F903460C221B
S315000026701A604FF0FF3306E0054B1A68FB681344F7
S31500002680034A1360BB6818461037BD4680BD00BFBD
S31500002690E0090020500C0020500C002080B500AF4F
S315000026A000F00CF8FEF748F8FEE780B400AF00BE75
S315000026B000BFBD465DF8047B7047FFFF80B584B060
S315000026C000AF2F4B4FF47002C3F888202C4B2D4AD5
S315000026D09A600020FEF71AF8FFF738FD0120FEF792
S315000026E015F8294B3B603B6883F30A8800BF274AED
S315000026F0274BD31A1A460021254802F04EF9254ADF
S31500002700254BD31A1A462549234802F039F9244A9B
S31500002710244BD31A9B107B600023FB6007E0214A01
S31500002720FB6852F823309847FB680133FB60FA6870
S315000027307B689A42F3DBFFF7ADFC0320FFF730FF1F
S315000027400023BB6009E0184ABB6808334FF6FF71E7
S3150000275022F81310BB680133BB60BB68082BF2D9A3
S315000027600320FFF7CDFE0220FDF7D0FFFFF74AFE5C
S315000027700020FFF747FD00BF1037BD4680BD00BFF4
S3150000278000ED00E000000000500C0020500C00207E
S31500002790480300202C0300200000002054570000AE
S315000027A02803002024030020000D084080B584B0D3
S315000027B000AF03463A60FB800B46BB800023FB81DB
S315000027C03B68002B01D1022374E0386802F033F92C
S315000027D0B860BB68002B03D0BB68B3F5807F01D916
S315000027E0172367E0FB895A1CFA811A46334BEE2100
S315000027F09954FB895A1CFA811A46304BB1219954D7
S31500002800FB895A1CFA811A462C4B52219954FB8893
S315000028101B0A99B2FB895A1CFA811A46C9B2274B80
S315000028209954FB895A1CFA811A46FB88D9B2234B64
S315000028309954BB881B0A99B2FB895A1CFA811A461D
S31500002840C9B21E4B9954FB895A1CFA811A46BB8899
S31500002850D9B21A4B9954FB89184A1344BA68396895
S31500002860184602F08DF8BB689AB2FB891344FB81C7
S31500002870FB895A1CFA811A46104BFF219954FB8991
S315000028805A1CFA811A460D4BFC219954FB895A1C95
S31500002890FA811A46094BFF219954FB895A1CFA8181
S315000028A01A46064BFF219954FB891946034800F046
S315000028B029F9034618461037BD4680BDE8090020B1
S315000028C080B586B000AF03460A46FB801346BB8040
S315000028D0EE233B73B1237B735323BB73FB881B0A25
S315000028E09BB2DBB2FB73FB88DBB23B74BB881B0A73
S315000028F09BB2DBB27B74BB88DBB2BB74FF23FB7479
S31500002900FC233B75FF237B75FF23BB7507F10C0387
S315000029100B21184600F0F6F8034618461837BD4650
S3150000292080BDFFFF80B584B000AF03463A60FB80F0
S315000029300B46BB800023FB813B68002B01D10223A1
S3150000294073E0386802F077F8B860BB68002B02D0F5
S31500002950BB68102B01D9172367E0FB895A1CFA8143
S315000029601A46344BEE219954FB895A1CFA811A46B1
S31500002970304BB1219954FB895A1CFA811A462D4BCA
S3150000298010219954FB881B0A99B2FB895A1CFA81BB
S315000029901A46C9B2274B9954FB895A1CFA811A4622
S315000029A0FB88D9B2234B9954BB881B0A99B2FB8981
S315000029B05A1CFA811A46C9B21E4B9954FB895A1CF5
S315000029C0FA811A46BB88D9B21A4B9954FB89194A1F
S315000029D01344BA683968184601F0D2FFBB689AB248
S315000029E0FB891344FB81FB895A1CFA811A46114B59
S315000029F0FF219954FB895A1CFA811A460D4BFC217A
S31500002A009954FB895A1CFA811A460A4BFF2199549C
S31500002A10FB895A1CFA811A46064BFF219954FB89F9
S31500002A201946044800F06EF8034618461037BD46AE
S31500002A3080BD00BFE809002080B582B000AF084A1B
S31500002A403B4692E803001860043319803B46062192
S31500002A50184600F057F8034618460837BD4680BDAD
S31500002A60E055000080B582B000AF012240F20F11A0
S31500002A702148FEF737FE78607B68002B01D07B6823
S31500002A8036E001224FF4C1611B48FEF72BFE786049
S31500002A907B68002B01D07B682AE018491848FDF7AF
S31500002AA05FFF78607B68002B01D07B6820E03B46A7
S31500002AB041F2883200214FF4E130FEF72BF97860BD
S31500002AC07B68002B05D13B4619460D48FEF7C4F836
S31500002AD078607B68002B04D00948FEF71BF87B68FA
S31500002AE006E04FF47A7141F28830FFF795FB002338
S31500002AF018460837BD4680BDDC070020D4530000C9
S31500002B00E407002080B584B000AF78600B467B8078
S31500002B107B68002B01D102232DE07B88002B01D19D
S31500002B20172328E0164B00221A707B881A4679680C
S31500002B301448FEF743F8B860BB68002B01D0BB68A9
S31500002B4019E00023FB810EE00D4B1B78DBB2002B56
S31500002B5001D000230FE04FF47A710120FFF75CFBF0
S31500002B60FB890133FB81FB89632BEDD902210548E3
S31500002B70FEF799F8142318461037BD4680BD00BFEE
S31500002B80F40A0020E407002080B586B000AFF860A4
S31500002B900B467A607B81FB68002B02D07B68002B9A
S31500002BA001D100232AE0174B93F84431DBB2002B06
S31500002BB001D1002322E0134BB3F84231FB82FB8A9A
S31500002BC0002B03D0FA8A7B899A4201D9002315E0AB
S31500002BD0FB8A1A460C49F86801F0D2FE7B68FA8A2D
S31500002BE01A80084B0022A3F84221064B002283F8E4
S31500002BF04521044B002283F8442101231846183747
S31500002C00BD4680BDF40A0020F50A002080B400AF5E
S31500002C10084B93F84731DBB2002B01D1002304E0C7
S31500002C20044B002283F8472101231846BD465DF870
S31500002C30047B7047F40A002080B487B000AF786048
S31500002C40574A07F1100392E803001860043319800D
S31500002C506FF44073FB607B68002B00F099807B6803
S31500002C601B79022B03D14F4B01221A7093E07B682C
S31500002C701B79042B40F08F807B689B68FB75494B62
S31500002C8093F8463118333B4413F8083CFA7D9A42D0
S31500002C9008D1444B93F846310133DAB2414B83F8FD
S31500002CA046210CE03B7CFA7D9A4204D13D4B012241
S31500002CB083F8462103E03B4B002283F84621394B3B
S31500002CC093F84631052B07D9364B012283F8472165
S31500002CD0344B002283F84621324B93F84431DBB261
S31500002CE0002B58D12F4BB3F842319BB2002B02D1A7
S31500002CF0FB7DEE2B4ED12B4BB3F842319BB2B3F595
S31500002D00A07F1CD2274BB3F842319BB21A46254B03
S31500002D101344FA7D5A70234BB3F842319BB2013308
S31500002D209AB2204BA3F842211E4B93F84531183333
S31500002D303B4413F80C3CFA7D9A4212D108E0194B39
S31500002D400022A3F84221174B002283F8452122E0F6
S31500002D50144B93F845310133DAB2124B83F845210F
S31500002D600CE03B7BFA7D9A4204D10E4B012283F89C
S31500002D70452103E00B4B002283F84521094B93F8CC
S31500002D804531032B07D9074B012283F8442102E082
S31500002D9000BF00E000BF1C37BD465DF8047B7047EE
S31500002DA0E8550000F40A002080B487B000AFF86050
S31500002DB00B467A607B8100237B61FB68002B05D084
S31500002DC07B68002B02D07B89002B01D100233EE0DB
S31500002DD07B89013BFA6813441B78002B02D17B895F
S31500002DE0013B7B817B89002B01D100232FE000234F
S31500002DF07B8223E07B8AFA6813441B782F2B05D944
S31500002E007B8AFA6813441B78392B01D900231EE00C
S31500002E107A6913469B0013445B0019467B8AFA685D
S31500002E2013441B780B44303B7B617B69B3F5803FD1
S31500002E3001D300230BE07B8A01337B827A8A7B896C
S31500002E409A42D7D37B699AB27B681A8001231846C7
S31500002E501C37BD465DF8047B704780B485B000AF73
S31500002E6003463960FB713B68002B01D100231AE051
S31500002E70FB791B09FB73FB7903F00F03BB73FB7B29
S31500002E80092B02D8BB7B092B01D900230BE0FB7B66
S31500002E901A46920013445B00DAB2BB7B1344DAB2E3
S31500002EA03B681A70012318461437BD465DF8047B4B
S31500002EB07047FFFF80B584B000AF78600B467B801B
S31500002EC07B68002B00F08C807B880D2B40F088807F
S31500002ED07B681B78EE2B40F083807B6801331B7880
S31500002EE0F72B7DD17B6802331B7807F10F02114661
S31500002EF01846FFF7B2FF0346002B73D07B680333F7
S31500002F001B7807F10E0211461846FFF7A6FF034687
S31500002F10002B67D07B6805331B7807F10D0211463D
S31500002F201846FFF79AFF0346002B5BD07B680633F3
S31500002F301B7807F10C0211461846FFF78EFF034671
S31500002F40002B4FD07B6807331B7807F10B02114625
S31500002F501846FFF782FF0346002B43D07B680833F1
S31500002F601B7807F10A0211461846FFF776FF03465B
S31500002F70002B37D0BB7B002B36D0BB7B0C2B33D83A
S31500002F807B7B002B30D07B7B1F2B2DD83B7B172BDD
S31500002F902AD8FB7A3B2B27D8BB7A3B2B24D8FB7B42
S31500002FA09BB203F5FA639AB2114BA3F84821BA7B98
S31500002FB00F4B83F84A217A7B0D4B83F84B213A7BE2
S31500002FC00B4B83F84C21FA7A094B83F84D21BA7AD8
S31500002FD0074B83F84E21064B012283F8502104E06B
S31500002FE000BF02E000BF00E000BF1037BD4680BD55
S31500002FF02000002080B584B000AF78600B467B804F
S315000030007B68002B6AD07B880C2B67D97B681B7882
S31500003010EE2B65D17B6801331B78B12B60D17B68C1
S3150000302002331B78112B5BD17B6807331B78112B7E
S3150000303056D17B6803331B781B021AB27B680433B4
S315000030401B781BB213431BB2FB817B6805331B78CD
S315000030501B021AB27B6806331B781BB213431BB2E2
S31500003060BB81FB89002B3DD17B880C3B7B817B6838
S31500003070083307F1080279891846FFF795FE0346DB
S31500003080002B31D0BB89022B04D13A89184BA3F807
S3150000309042212AE0BB89032B05D13B89DAB2144BC6
S315000030A083F8442121E0BB89042B05D13B89DAB2A0
S315000030B00F4B83F8452118E0BB89052B05D13B89C9
S315000030C0DAB20B4B83F846210FE0BB89062B0CD1F5
S315000030D03B89DAB2064B83F8472106E000BF04E0DD
S315000030E000BF02E000BF00E000BF1037BD4680BD54
S315000030F02000002080B586B000AF03460A46FB805C
S315000031001346BB800023FB6000233B61BB8807F1AD
S315000031100C000C4A082101F049FC78617B69002B00
S3150000312002DB7B69072B01D9172307E007F10C02A5
S31500003130FB8819460020FFF7F5FB034618461837AB
S31500003140BD4680BDF055000080B586B000AFF86082
S31500003150B9607A603B60B968F86801F074FC786120
S315000031607B69002B01D100231FE0B86801F063FCE6
S3150000317002467B6913447B610E49786901F04AFC7B
S3150000318038613B69002B03D03A693B689A4201D308
S3150000319000230AE03A697969786801F0F1FB7A68F8
S315000031A03B69134400221A70012318461837BD469E
S315000031B080BD00BFF455000080B584B000AF7860D4
S315000031C039607B68002B08D03B68002B05D07868F7
S315000031D001F031FC0346132B01D8002360E07B6825
S315000031E0043393F900302D2B1DD17B68073393F9F7
S315000031F000302D2B17D17B680A3393F90030202B32
S3150000320011D17B680D3393F900303A2B0BD17B68D3
S31500003210103393F900303A2B05D17B68133393F9B9
S3150000322000303B2B01D000233AE00023FB7318E06B
S31500003230FB7B1D4AD35C1A467B68134493F9003026
S315000032402F2B09DDFB7B184AD35C1A467B68134497
S3150000325093F90030392B01DD002321E0FB7B01339C
S31500003260FB73FB7B0D2BE3D97B68113393F900309D
S31500003270DBB21A46920013445B00DAB27B68123363
S3150000328093F90030DBB21344DBB2103BDAB23B6891
S315000032901A703B681B783B2B94BF01230023DBB2DB
S315000032A018461037BD4680BD3056000080B582B046
S315000032B000AFFFF7D7FB78607B68002B01D07B68F7
S315000032C040E0224BB3F8423119460220FFF712FFC5
S315000032D078607B68002B08D11C4B93F844319BB275
S315000032E019460320FFF706FF78607B68002B08D19C
S315000032F0164B93F845319BB219460420FFF7FAFEA8
S3150000330078607B68002B08D1104B93F846319BB24E
S3150000331019460520FFF7EEFE78607B68002B08D182
S315000033200A4B93F847319BB219460620FFF7E2FE97
S3150000333078607B68002B04D101210020FFF7C0FADA
S3150000334078607B6818460837BD4680BD200000209F
S3150000335080B500AF17E0124BB3F84031012B0BD903
S315000033600F4B5B78F72B07D10D4BB3F8403119465D
S315000033700B48FFF79FFD06E0094BB3F840311946AD
S315000033800748FFF737FE074A4FF4A0710448FFF7D6
S31500003390FBFB0346002BDED100BF00BF80BD00BF94
S315000033A0200000206001002080B582B000AF786068
S315000033B07B68002B01D100230FE0FFF727FC0346B3
S315000033C0002B01D1002308E07A68064B03F5A173B0
S315000033D0196811609B889380012318460837BD46FB
S315000033E080BD00BF2000002080B500AFFFF724FBA2
S315000033F00346184680BDFFFF80B483B000AF7860F7
S315000034007B68002B04D00C4B93F85031002B01D174
S3150000341000230BE07A68084B03F5A47303CB106016
S315000034205160054B002283F85021012318460C37C2
S31500003430BD465DF8047B70472000002080B500AFD4
S3150000344001210020FFF73CFA0346184680BDFFFF26
S3150000345080B58EB004AFF8607B600B46FB721346F6
S31500003460BB72FB68002B02D07B68002B01D10223C4
S31500003470B4E0FB7A3B2B02D8BB7A002B01D10323A5
S31500003480ACE07B6800221A70FB68FB61F86901F00A
S31500003490D2FA0246FB6913443B6292E03B6A013B67
S315000034A03B623A6AFB699A420BD93B6A013B93F944
S315000034B000300D2BF2D03B6A013B93F900300A2B0A
S315000034C0ECD03A6AFB699A4200F086803B6A7B62DE
S315000034D002E07B6A013B7B627A6AFB699A420BD9FE
S315000034E07B6A013B93F900300D2B05D07B6A013BCB
S315000034F093F900300A2BECD13A6A7B6AD31ABB6186
S31500003500BB69002B5BD0BB697F2B58D8BA69796A37
S31500003510344801F035FA344ABB69134403F25113B7
S3150000352000221A7007F1130319462E48FFF744FECE
S315000035300346002B43D0FB7CFA7A9A423FD31823EA
S315000035402A4A2B492748FFF7FFFD0346002B36D0B2
S315000035501823284A28492348FFF7F6FD0346002B7F
S315000035602DD01823254A26491E48FFF7EDFD0346B0
S31500003570002B24D0214B02931E4B01931B4B00932F
S31500003580184B204A8021204801F010FA78617B69A7
S31500003590002B02DB7B697F2B01D917231EE01A4A19
S315000035A001210020FFF702F90346002B01D0642316
S315000035B014E07B681B780133DAB27B681A707B6A89
S315000035C03B623A6AFB699A4207D97B681B78BA7AEA
S315000035D09A423FF666AF00E000BF00231846283740
S315000035E0BD4680BD7101002020000020F1010020B1
S315000035F0F8550000090200200856000021020020AC
S3150000360014560000205600003902002080B485B010
S3150000361000AF0346FB800023FB8103E000BFFB896C
S315000036200133FB81FA89FB889A42F7D300BF00BFBA
S315000036301437BD465DF8047B704780B584B000AF93
S315000036400023FB600023BB6000237B6000233B60FC
S3150000365000F09DFB0346FB6000F099FB0346BB6050
S3150000366000F095FB03467B6000F091FB03463B6050
S31500003670BB681A02FB681A437B681B041A433B6843
S315000036801B06134318461037BD4680BD80B584B06F
S3150000369000AF0346FB710023FB730A2000F024FBF6
S315000036A0FB79184600F04BFB00F071FB0346FB73F9
S315000036B0FB7B18461037BD4680BD80B582B000AF93
S315000036C00346FB710C2000F00FFBFB79184600F057
S315000036D036FBFFF7B2FF034618460837BD4680BDE6
S315000036E080B500AF0E2000F0FFFAFFF7A6FF0346F5
S315000036F0184680BD80B582B000AF222000F0F4FAF3
S3150000370000F045FB0346FB71FB7918460837BD46BA
S3150000371080BDFFFF80B582B000AF00237B6012E062
S315000037200E4B5B78DBB2002B06D00C4B00225A7096
S315000037300A4B1B78DBB20CE04FF49670FFF766FF7E
S315000037407B6801337B607B684CF24F329342E7D94A
S31500003750FA2318460837BD4680BD00BFBC020020CC
S3150000376080B582B000AF0346FB71084B00225A7049
S31500003770064BFF221A70FB79184600F0B5FAFFF7E0
S31500003780C9FF034618460837BD4680BDBC02002067
S3150000379080B582B000AF03460A46FB711346BB7183
S315000037A00A4B00225A70094BFF221A70FB79184601
S315000037B000F09AFABB79184600F0C1FAFFF7AAFFA3
S315000037C0034618460837BD4680BD00BFBC02002030
S315000037D080B500AF3020FFF7C3FF0346184680BD13
S315000037E080B500AF2120FFF751FF0346184680BD84
S315000037F080B500AF3120FFF7B3FF0346184680BD02
S3150000380080B584B000AF78603960272000F06CFA8C
S315000038103B68DBB2184600F092FA3B681B0ADBB243
S31500003820184600F08CFA0120FFF7F0FE3B68002BEB
S3150000383010D03B68FB6000F0AAFA03461A467B6884
S315000038401A707B6801337B60FB68013BFB60FB6899
S31500003850002BF0D13B6818461037BD4680BD80B5B9
S3150000386084B000AF78600B467B8013463B802D20EA
S3150000387000F03AFA7B88DBB2184600F060FA7B88E3
S315000038801B0A9BB2DBB2184600F059FA3B88DBB242
S31500003890184600F054FA3B881B0A9BB2DBB2184666
S315000038A000F04DFA0A20FFF7B1FE3B88002B0FD03F
S315000038B03B88FB817B681B78184600F040FA7B68E2
S315000038C001337B60FB89013BFB81FB89002BF1D136
S315000038D03B8818461037BD4680BD80B584B000AF22
S315000038E078607B68002B19D02F2000F0FDF980232B
S315000038F0FB730FE07B681B78BB73BB7B184600F03D
S315000039001EFABB7B002B0BD07B6801337B60FB7BF5
S31500003910013BFB73FB7B002BECD102E000BF00E018
S3150000392000BF1037BD4680BD80B500AF6820FFF7E9
S31500003930C4FE0346184680BD80B582B000AF7860ED
S315000039407868FFF7CAFF3220FFF70AFF03461846DA
S315000039500837BD4680BD80B582B000AF7860786814
S31500003960FFF7BBFF3420FFF7FBFE03461846083778
S31500003970BD4680BD80B582B000AF78607868FFF73D
S31500003980ACFF4020FFF7ECFE034618460837BD465D
S3150000399080BD80B582B000AF0346FB71FB79194646
S315000039A03620FFF7F5FE034618460837BD4680BDAC
S315000039B080B582B000AF7860144B00225A70134B6A
S315000039C0FF221A70392000F08FF97B68DBB21846A7
S315000039D000F0B5F97B689BB21B0A9BB2DBB21846B6
S315000039E000F0ADF97B681B0CDBB2184600F0A7F9B6
S315000039F07B681B0EDBB2184600F0A1F9FFF78AFEC2
S31500003A00034618460837BD4680BD00BFBC020020ED
S31500003A1080B586B000AFF8600B467A607B811B4BA1
S31500003A2000225A70194BFF221A703A2000F05CF9F6
S31500003A307B89DBB2184600F082F97B891B0A9BB2B0
S31500003A40DBB2184600F07BF97B68002B02D07B685E
S31500003A5000221A60FFF75EFE0346FB75FB7D002B16
S31500003A600FD1FFF73DFE38617B68002B02D07B68E3
S31500003A703A691A603B69002B03D03969F868FFF789
S31500003A80BFFEFB7D18461837BD4680BDBC02002030
S31500003A9080B586B000AFF8600B467A607B817B8983
S31500003AA01A460021F868FFF7DAFE174B00225A7013
S31500003AB0154BFF221A703C2000F016F97B89DBB209
S31500003AC0184600F03CF97B891B0A9BB2DBB218460C
S31500003AD000F035F9FFF71EFE0346FB75FB7D002B54
S31500003AE006D07B68002B09D07B6800221A8005E08F
S31500003AF07B68002B02D07B687A891A80FB7D18468A
S31500003B001837BD4680BD00BFBC02002080B485B01A
S31500003B1000AF0346FB800023FB8109E000BF00BF26
S31500003B2000BF00BF00BF00BF00BFFB890133FB81A0
S31500003B30FA89FB889A42F1D300BF00BF1437BD460D
S31500003B405DF8047B7047FFFF80B582B000AF034687
S31500003B50FB71FB791A4640F201710348FDF7C2FD7D
S31500003B6000BF0837BD4680BDDC07002080B582B0A7
S31500003B7000AF0346FB71FB791A464FF4E061034838
S31500003B80FDF7B0FD00BF0837BD4680BDDC0700204D
S31500003B9080B582B000AF0346FB71FB791A4640F24E
S31500003BA004710348FDF79EFD00BF0837BD4680BD82
S31500003BB0DC07002080B582B000AF0346FB71FB79BD
S31500003BC01A4640F202710348FDF78CFD00BF083724
S31500003BD0BD4680BDDC07002080B582B000AF03463D
S31500003BE0FB71FB791A4640F203710348FDF77AFD33
S31500003BF000BF0837BD4680BDDC07002080B582B017
S31500003C0000AF0346FB71FB79002B07D0FF23FF2291
S31500003C104FF4A0610748FDF79CFD06E0FF23002254
S31500003C204FF4A0610348FDF794FD00BF0837BD4679
S31500003C3080BD00BFDC07002080B584B000AF03461E
S31500003C40FB71FB79FB81FA89FF234FF4A0610348DE
S31500003C50FDF717FD00BF1037BD4680BDDC0700200D
S31500003C6080B582B000AF0023FB80BB1D1A464FF41F
S31500003C70A0610648FDF7E8FCFB88DBB29BB2FB803F
S31500003C80FB88DBB218460837BD4680BDDC0700203E
S31500003C9080B500AF0120FFF769FF0120FFF78AFF1B
S31500003CA00120FFF799FF0020FFF772FF0020FFF7C2
S31500003CB04BFF0B490B48FEF723F80A48FEF786F838
S31500003CC04FF47A710120FEF7A7FA0120FFF73CFFB7
S31500003CD04FF47A713C20FEF79FFA00BF80BD00BF0B
S31500003CE0A0530000CC07002080B582B000AF034689
S31500003CF0FB71FB791846FFF79FFF0120FFF77EFF58
S31500003D000120FFF745FF0020FFF730FF0020FFF7F7
S31500003D1051FF0220FFF7FAFE0120FFF74BFF0120BB
S31500003D20FFF724FF0020FFF733FF0020FFF766FFB1
S31500003D303220FFF7EBFE00BF0837BD4680BD80B5D9
S31500003D4082B000AF0346FB71FB791846FFF774FF9C
S31500003D500120FFF753FF0020FFF71AFF0020FFF7AF
S31500003D6005FF0020FFF726FF0220FFF7CFFE012008
S31500003D70FFF720FF0120FFF7F9FE0020FFF708FFFD
S31500003D800020FFF73BFF00BF0837BD4680BD80B56A
S31500003D9082B000AF0023FB710020FFF7E7FE002092
S31500003DA0FFF71AFF0020FFF7F3FE0220FFF7AEFE33
S31500003DB0FFF756FF0346FB710120FFF70DFF0020BA
S31500003DC0FFF7E6FE0120FFF7D1FEFB79184608371C
S31500003DD0BD4680BD80B582B000AF78607B685B6809
S31500003DE00A2B0BD1074BFF221A70064B01225A7081
S31500003DF0FFF780FC03461A46024B1A7000BF0837CD
S31500003E00BD4680BDBC02002080B584B000AF03462D
S31500003E10FB71FB79042B04D0FB79072B01D0FA2325
S31500003E2032E01B4AFB799370FFF732FF0620FFF75B
S31500003E305BFF5720FFF783FFFFF7A9FF0346BB731E
S31500003E40BB7BA82B01D0FA231EE01520FFF74CFF01
S31500003E50FB791846FFF773FF0023FB7310E04FF45E
S31500003E607A710A20FEF7D8F9FFF791FF0346BB7374
S31500003E70BB7B512B01D1002306E0FB7B0133FB7397
S31500003E80FB7B092BEBD9FA2318461037BD4680BDBC
S31500003E90BC02002080B485B000AF0346FB800B4611
S31500003EA07B7113463B71FB8840F2BB7293420DD97E
S31500003EB0FB8842F20F72934208D87B79002B05D01B
S31500003EC07B790C2B02D83B79002B01D1002336E0FD
S31500003ED07B79013B1D4AD35CFB73FB8803F003032C
S31500003EE09BB2002B0BD1FB88194AA2FB0312520985
S31500003EF0642101FB02F29B1A9BB2002B0CD1FB88BA
S31500003F00134AA2FB0312D2094FF4C87101FB02F255
S31500003F109B1A9BB2002B01D1012300E00023BB7347
S31500003F207B79022B04D1BB7B002B01D01D23FB73B5
S31500003F303A79FB7B9A4294BF01230023DBB21846F1
S31500003F401437BD465DF8047B704700BFA8560000D5
S31500003F501F85EB5180B582B000AFFA23FB710023B9
S31500003F60BB7147E0FFF734FC0346FB71FB79002B7E
S31500003F7035D1FFF735FC03467B71224B5B78002B6E
S31500003F800ED07B790F2B06D81E4B1B78012B04D144
S31500003F907B79022B01D9002330E01A4B00225A709C
S31500003FA0FFF726FC0346FB71FFF71AFC03467B71FD
S31500003FB0FB79002B04D1134B01225A7000231DE01C
S31500003FC0104B1B78012B0AD17B79022B07D9BB79C1
S31500003FD0042B04D90B4B01225A7000230EE0094B27
S31500003FE000225A704FF47A713220FEF715F9BB7928
S31500003FF00133BB71BB79632BB4D9FB7918460837FB
S31500004000BD4680BD3C0C002080B592B000AF786004
S3150000401039600023FB6007F110032C2200211846AB
S3150000402000F0BBFC786800F006FD38643B6C002BA2
S3150000403002D03B6C2F2B01D9032334E000237B6491
S3150000404029E07A687B6C1344197807F10C027B6CC3
S3150000405013440A461A707B6C01337A6813441B7842
S315000040602F2B06D07B6C01337A6813441B78002B08
S315000040700ED107F10C031846FFF77CFC034687F8C0
S315000040803F3097F83F30002B02D097F83F300AE0D8
S315000040907B6C01337B647A6C3B6C9A42D1D3386873
S315000040A0FFF759FC034618464837BD4680BD80B524
S315000040B088B000AFF860B9607A603B600023BB82CD
S315000040C07868FFF739FC0346FB77FB7F002B0FD19F
S315000040D0FFF72AFCB861B869FFF76AFC0346FB776D
S315000040E0FB7F002B19D00020FFF753FCFB7F33E04A
S315000040F0B968F868FFF788FF0346FB77FB7F002B5C
S3150000410001D0FB7F28E07868FFF716FC0346FB77B3
S31500004110FB7F002B01D0FB7F1EE007F114023B8DD5
S3150000412019463868FFF7B4FC0346FB770120FFF712
S3150000413030FC0346FB75FB7F002B01D0FB7F0BE0B9
S31500004140FB7D002B01D0FB7D06E0BB8A3A8D9A42AF
S3150000415001D01F2300E0002318462037BD4680BD4E
S3150000416080B584B000AF0346FB71FB79002B04D009
S31500004170FB79012B01D0032311E00B4AFB79137065
S31500004180094B00225A70FB79012B01D1042300E070
S315000041900723FB73FB7B1846FFF736FE03461846DC
S315000041A01037BD4680BD00BF3C0C0020F0B5E3B023
S315000041B006AF05460C461046194607F5B873A3F533
S315000041C0B5732A461A8007F5B873A3F26B13224615
S315000041D01A7007F5B873A3F5B67302461A7007F599
S315000041E0B873A3F26D130A461A700023C7F8483154
S315000041F007F5A67300221A605A609A60DA601A619F
S315000042005A619A610023C7F8383107F59E73002278
S315000042101A605A609A600023C7F8083107F586735A
S315000042202C220021184600F0B8FB07F5B873A3F559
S31500004230B47300221A600433FC220021184600F0F1
S31500004240ACFB07F5B873A3F5B6731A7807F5B87320
S31500004250A3F26B13197807F5B873A3F5B5731B882A
S315000042601846FFF717FE0346002B18D007F5B8735C
S31500004270A3F26D131B78172B11D897F888313B2BB7
S315000042800DD897F88C313B2B09D8D7F89031002BF5
S3150000429005D0D7F8903193F90030002B01D10323D4
S315000042A0BDE0FFF757FE034687F86F3197F86F3189
S315000042B0002B02D097F86F31B1E007F5B873A3F57C
S315000042C0B5731C8807F5B873A3F26B131B7807F553
S315000042D0B872A2F5B672127807F5B871A1F26D112F
S315000042E0097807F5A47002910192009323464E4A7D
S315000042F0202100F05BFBC7F86801D7F86831002B76
S3150000430003DBD7F868311F2B01D9032387E097F821
S31500004310883107F59C70454A102100F047FBC7F825
S315000043206801D7F86831002B03DBD7F868310F2B0B
S3150000433001D9032373E007F5B873A3F5B5731D8898
S3150000434007F5B873A3F26B131B7807F5B872A2F5DD
S31500004350B672127807F5B871A1F26D11097897F85F
S31500004360880107F5847403900291019200932B460D
S315000043702F4A3021204600F019FBC7F86801D7F80C
S315000043806831002B03DBD7F868312F2B01D90323C3
S3150000439045E007F5B873A3F5B573B3F800C007F5A4
S315000043A0B873A3F26B131B7807F5B872A2F5B67251
S315000043B0127807F5B871A1F26D11097897F888019E
S315000043C097F88C4107F10806D7F8905105950494A3
S315000043D003900291019200936346164A4FF480714E
S315000043E0304600F0E3FAC7F86801D7F86831002BC9
S315000043F003DDD7F86831FF2B01D903230FE0D7F887
S3150000440068319BB207F1080407F5847207F59C71C1
S3150000441007F5A47000932346FFF749FE03461846A6
S3150000442007F5BA77BD46F0BD405600005856000065
S315000044306456000084560000B0B598B004AF044638
S31500004440084611461A462346FB8003467B710B46F7
S315000044503B711346FB700023FB6007F110032C220F
S315000044600021184600F099FA0023BB607B6E002BF2
S3150000447006D0FB6E002B03D0B7F86830012B01D8AD
S315000044800323A8E07B6E00221A70FB6E00221A80BE
S315000044903A797979FB881846FFF7FCFC0346002B2E
S315000044A006D0FB78172B03D897F860303B2B01D941
S315000044B0032390E0FFF74EFD034687F84F3097F849
S315000044C04F30002B02D097F84F3084E0FD887B797F
S315000044D03A79F97897F8600007F10C040390029195
S315000044E0019200932B463E4A3021204600F05EFAA8
S315000044F078647B6C002B02DB7B6C2F2B01D90323AA
S3150000450069E007F10C031846FFF716FA034687F829
S315000045104F3097F84F30002B02D097F84F305AE0C3
S31500004520FFF702FA3864B7F86830013B3A6C9A42F2
S3150000453005D23B6CA7F84C300023BB6409E0B7F802
S315000045406830013BA7F84C30B7F84C303A6CD31AB8
S31500004550BB64B7F84C30002B15D0B86CFFF728FABF
S31500004560034687F84F3097F84F30002B0ED107F1EE
S315000045700802B7F84C301946786EFFF749FA034639
S3150000458087F84F3002E0002387F84F300020FFF70E
S3150000459000FA034687F83F3097F84F30002B02D0D9
S315000045A097F84F3017E0B7F84C20BB689A4201D213
S315000045B01F2310E0BB687A6E134400221A70BB6892
S315000045C09AB2FB6E1A8097F83F30002B02D097F80C
S315000045D03F3000E0002318465037BD46B0BD00BF4F
S315000045E0645600007BB972B90029BEBF00204FF0A7
S315000045F0004106E008BF00281CBF6FF000414FF0E5
S31500004600FF3000F0B5B9ADF1080C6DE904CE002914
S3150000461009DB002B1ADB00F035F8DDF804E0DDE9F4
S31500004620022304B07047404261EB4101002B1BDBC3
S3150000463000F028F8DDF804E0DDE9022304B040428A
S3150000464061EB4101524263EB43037047524263EB15
S31500004650430300F017F8DDF804E0DDE9022304B0B7
S31500004660404261EB41017047524263EB430300F065
S3150000467009F8DDF804E0DDE9022304B0524263EBF9
S31500004680430370472DE9F04F099D04460F46002B62
S3150000469048D18A42944661D9B2FA82F343B1C3F152
S315000046A020019F4002FA03FC9C4020FA01F10F43CF
S315000046B04FEA1C411FFA8CFE220CB7FBF1F601FBF8
S315000046C0167706FB0EF042EA0742904208D91CEB29
S315000046D0020206F1FF3702D2904200F237813E46CF
S315000046E0121AA4B2B2FBF1F001FB102200FB0EFE7F
S315000046F044EA0244A64508D91CEB040400F1FF3243
S3150000470002D2A64500F21C81104640EA0640A4EB00
S315000047100E0400261DB1DC400023C5E900433146E6
S31500004720BDE8F08F8B4209D9002D00F0FD800026F0
S31500004730C5E9000130463146BDE8F08FB3FA83F68D
S31500004740002E4BD18B42C0F0F280824240F2EF80C5
S315000047503046002DE3D0C5E90047E0E702B9FFDEA9
S31500004760B2FA82F3002B40F09D80891A4FEA124E6E
S3150000477097B20126200CB1FBFEF20EFB121140EAA5
S31500004780014107FB02F088420FD91CEB010102F13F
S31500004790FF382CBF4FF001094FF00009884203D9BA
S315000047A0B9F1000F00F0CF804246091AA4B2B1FB5E
S315000047B0FEF00EFB101100FB07F744EA0144A74286
S315000047C008D91CEB040400F1FF3102D2A74200F223
S315000047D0B4800846E41B40EA02409BE7C6F1200786
S315000047E0B34001FA06F422FA07FCF940B2404CEA5B
S315000047F0030C20FA07F34FEA1C491C431FFA8CFEF0
S3150000480000FA06F3200CB1FBF9F809FB181140EA8F
S31500004810014108FB0EF088420FD91CEB010108F19B
S31500004820FF3A2CBF4FF0010B4FF0000B884203D923
S31500004830BBF1000F00F08D80D046091AA4B2B1FB7F
S31500004840F9F009FB101100FB0EFE44EA01418E450A
S3150000485007D91CEB010100F1FF3401D28E457FD848
S31500004860204640EA0840A1EB0E01A0FB0298414514
S315000048704C46C64602D306D14B4504D20138B9EBA5
S31500004880020468EB0C0E002D70D01A1B61EB0E01B2
S3150000489022FA06F301FA07F7F14000261F43C5E99D
S315000048A000713CE702FA03FCC3F1200001FA03F2AF
S315000048B021FA00F64FEA1C4E24FA00F11FFA8CF793
S315000048C09C401143B6FBFEF00A0C0EFB106642EA52
S315000048D0064200FB07F696420ED91CEB020200F1D7
S315000048E0FF382CBF4FF001094FF00009964202D95C
S315000048F0B9F1000F31D04046921B89B2B2FBFEF6E9
S315000049000EFB162241EA024106FB07F28A4207D94C
S315000049101CEB010106F1FF3801D28A4223D8464634
S31500004920891A46EA004625E72E462846F7E6841AFF
S3150000493061EB030301201F460BE76444023849E795
S3150000494064440238E1E6023A61442EE7023E6244DC
S31500004950C6E6A8F1020861446FE702386244CBE775
S31500004960023861447DE7023E6144D9E72E46D6E629
S31500004970704700BF014B1868704700BFC002002097
S315000049800A44431E914200D1704710B511F8014BFD
S31500004990914203F8014FF9D110BD024403469342F8
S315000049A000D1704703F8011BF9E7FFFF0CB4184B61
S315000049B030B50C1E9DB01D6808DA8B234FF0FF3012
S315000049C02B601DB0BDE8304002B070474FF4027353
S315000049D00290069002A9ADF8143014BF04F1FF331B
S315000049E02346209A2846049307934FF6FF73ADF8A3
S315000049F0163021AB019300F097F8431CBCBF8B2304
S31500004A002B60002CDDD0029B00221A70D9E700BF74
S31500004A10C0020020034670B51E4613F8014B44B190
S31500004A204A1E01E0A54204D012F8015F002DF9D11B
S31500004A30F2E7301A70BD034613F8012B002AFBD1AA
S31500004A40181A013870470A7870B56AB970BD9A426B
S31500004A5009D10C46054614F8013F002BF6D015F88F
S31500004A60016F9E42F7D001300378002BEFD1184634
S31500004A70ECE72DE9F0478E6882460C4690469E424A
S31500004A801F4638D88A8912F4906F32D025680133D0
S31500004A900969A5EB0109656905EB45054B4405EB7D
S31500004AA0D5756D109D4238BF1D46530531D5294633
S31500004AB000F064FB064650B90C234FF0FF30CAF8ED
S31500004AC00030A38943F04003A381BDE8F0874A463E
S31500004AD02169FFF755FFA38923F4906343F0800310
S31500004AE0A38126614E446561A5EB090526603E4615
S31500004AF0A560BE4200D93E4632464146206800F0D7
S31500004B00B7FAA36800209B1BA36023683344236085
S31500004B10DBE72A4600F0A6FB06460028E1D121691C
S31500004B20504600F0BFFAC7E72DE9F04F98468B894B
S31500004B309DB007461B060D4614460ED50B6963B994
S31500004B40402100F01BFB2860286120B90C233B6044
S31500004B504FF0FF30D1E040236B610023CDF80C808D
S31500004B604FF00109DFF8AC81099320238DF8293035
S31500004B7030238DF82A3023469A4613F8012B0AB1C2
S31500004B80252AF9D1BAEB040B0BD05B4622462946FF
S31500004B903846FFF76EFF013000F0AA80099A5A44A2
S31500004BA009929AF80030002B00F0A28000234FF003
S31500004BB0FF320AF1010A049307938DF853301A93D2
S31500004BC0CDE9052354460522524814F8011B00F08E
S31500004BD041FA049AD8B9D00644BF20238DF8533041
S31500004BE0110744BF2B238DF853309AF800302A2B37
S31500004BF015D0079A544600204FF00A0C214611F8AA
S31500004C00013B303B092B4ED9B0B1079214E0A0EB23
S31500004C100803A24609FA03F313430493D2E7039B5E
S31500004C20191D1B68002B0391BBBF5B4242F00202B9
S31500004C3007930793B8BF049223782E2B0CD1637881
S31500004C402A2B35D1039B02341A1D1B68002B0392B5
S31500004C50B8BF4FF0FF330593DFF8C8A003222178D1
S31500004C60504600F0F7F940B14023A0EB0A000134AA
S31500004C7003FA00F0049B0343049314F8011B062275
S31500004C8025488DF8281000F0E5F9002838D0234B88
S31500004C901BBB039B073323F0070308330393099BCE
S31500004CA03344099367E70CFB02320C460120A5E763
S31500004CB0002301344FF00A0C19460593204610F8DC
S31500004CC0012B303A092A03D9002BC5D00591C3E739
S31500004CD00CFB012104460123F0E703AB2A4604A995
S31500004CE0384600930E4B00E000BF421C0646D6D164
S31500004CF0AB895B063FF52CAF09981DB0BDE8F08F78
S31500004D0003AB2A4604A938460093054B00F07CF80D
S31500004D10EBE700BFB4560000BE56000000000000DE
S31500004D20734A0000BA5600002DE9F0471646994628
S31500004D308A6807460B690C46DDF820809342B8BFA7
S31500004D401346336091F843200AB101333360236878
S31500004D50990642BF336802333360256815F00605AD
S31500004D6006D104F1190AE36832689B1AAB4229DCC2
S31500004D7094F84320131E226818BF012392062ED4EE
S31500004D8004F1430249463846C047013021D0236822
S31500004D901A3454F80E5C03F0060332680026042B1E
S31500004DA054F8123C08BFAD1A54F80A2C14BF00255B
S31500004DB025EAE5759342C4BF9B1AED18B5421AD190
S31500004DC0002008E00123524649463846C0470130D4
S31500004DD003D14FF0FF30BDE8F0870135C3E7E11896
S31500004DE05A1C30200233224481F8430094F84510BF
S31500004DF082F84310C4E70123224649463846C04795
S31500004E000130E6D00136D9E72DE9FF470F7E9146FE
S31500004E1080460C46782F9A460C9D01F1430207D82E
S31500004E20622F0AD8002F00F0D880582F00F0A380F8
S31500004E3004F1420584F842703AE0A7F16303152BAA
S31500004E40F6D801A151F823F0A14E0000B54E00009E
S31500004E50314E0000314E0000314E0000314E000050
S31500004E60B54E0000314E0000314E0000314E0000BC
S31500004E70314E0000C14F0000E54E0000A34F000078
S31500004E80314E0000314E0000E34F0000314E00006D
S31500004E90E54E0000314E0000314E0000AB4F0000E1
S31500004EA02B681A1D1B682A6004F1420584F84230FB
S31500004EB00123A3E020682968060601F104030AD548
S31500004EC00E682B60002E03DA2D23764284F84330D9
S31500004ED05E480A2319E00E6810F0400F2B6018BFD9
S31500004EE036B2EFE72B682068191D2960010601D547
S31500004EF01E6802E04606FBD51E886F2F53480CBF7E
S31500004F0008230A23002184F843106568002DA56054
S31500004F10A2BF216821F0040121600EB9002D4DD0F9
S31500004F201546B6FBF3F103FB1167C75D05F8017D76
S31500004F3037460E46BB42F4D9082B0BD12368DE0751
S31500004F4008D5236961689942DEBF302305F8013C24
S31500004F5005F1FF35521B22614B4603AA2146404606
S31500004F60CDF800A0FFF7E0FE01304CD14FF0FF3046
S31500004F7004B0BDE8F087354881F845702968236894
S31500004F8051F8046B29601D0614D5DF0744BF43F0B2
S31500004F90200323601EB9236823F020032360102317
S31500004FA0B0E7236843F0200323607823284884F879
S31500004FB04530E3E7590648BFB6B2E6E71546BBE714
S31500004FC02B682668181D6169286035061B6801D59F
S31500004FD0196002E07006FBD519800023154623618F
S31500004FE0BAE72B6800211A1D2A601D6862682846E8
S31500004FF000F030F808B1401B60606368236100234D
S3150000500084F84330A8E723692A4649464046D047F4
S315000050100130ABD023689B0713D4E068039B98420A
S31500005020B8BF1846A4E70123324649464046D04752
S3150000503001309BD00135E36803995B1AAB42F2DC81
S31500005040EBE7002504F11906F5E700BFC556000099
S31500005050D6560000C9B2024410B59042034601D1AB
S31500005060002303E01C7801308C42F6D1184610BDAF
S31500005070884210B501EB020402D98442234607D8C0
S31500005080431EA14208D011F8012B03F8012FF8E7BF
S31500005090024401468A4200D110BD13F8014D02F8C0
S315000050A0014DF7E737B5002943D051F8043C0C1FF2
S315000050B00190002BB8BFE41800F014F91E4A0198BD
S315000050C0136833B96360146003B0BDE8304000F084
S315000050D00FB9A34208D9256861198B4201BF196827
S315000050E05B6849192160EDE71A465B680BB1A3427C
S315000050F0FAD911685518A5420BD1246821445418D1
S315000051001160A342E0D11C685B68214453601160C2
S31500005110DAE702D90C230360D6E7256861198B42CA
S3150000512002BF19685B684919636008BF2160546053
S31500005130CAE703B030BD00BF400C002070B50E4E6C
S315000051400C460546316811B900F0BCF830602146BE
S31500005150284600F0B7F8431C0AD0C41C24F0030408
S31500005160A04207D0211A284600F0ACF8013001D140
S315000051704FF0FF34204670BD440C00202DE9F0416D
S31500005180CD1C074625F0030508350C2D38BF0C2528
S31500005190002D01DBA94205D90C2300263B603046D1
S315000051A0BDE8F0812E4E00F09DF833681C4634BBF6
S315000051B029463846FFF7C2FF431C04464DD13468E2
S315000051C02646002E40D123683146384604EB0308B4
S315000051D000F078F880453AD12168033538466D1AD3
S315000051E025F0030508350C2D38BF0C252946FFF799
S315000051F0A5FF01302BD023682B4423600EE02268E4
S31500005200521B1ED40B2A16D96119A342256018BF5A
S315000052105960636808BF316062514B6004F10B0648
S31500005220384600F065F8231D26F00706F21AB6D0B8
S315000052309B1BA350B3E76268A3420CBF32605A605F
S31500005240ECE723466468B2E734467668B9E70C2390
S3150000525038463B6000F04CF8A1E72560DEE700BF6A
S31500005260400C00202DE9F041804614460E4621B937
S315000052701146BDE8F041FFF781BF2AB92546FFF781
S3150000528011FF2846BDE8F08100F038F88442074651
S3150000529002D8B4EB500F12D821464046FFF76EFFF6
S315000052A005460028EDD0BC422246314628BF3A4684
S315000052B0FFF766FB31464046FFF7F4FEE1E7354669
S315000052C0DFE7FFFF38B50023054D044608462B608F
S315000052D0FDF7AEF9431C02D12B6803B1236038BD3C
S315000052E0480C0020014800F011B800BF4C0C00200B
S315000052F0014800F00CB800BF4C0C002051F8043CEB
S31500005300181F002BBCBF0B58C0187047704770475A
S3150000531000000803332E382E300000004275696CF9
S315000053207420776974682052656E657361732041D5
S315000053306476616E63656420466C657869626C6547
S3150000534020536F667477617265205061636B616785
S31500005350652076657273696F6E20332E382E3000A5
S31500005360F8B500BFF8BC08BC9E467047F8B500BF4C
S31500005370F8BC08BC9E46704774656D7065726174B2
S315000053807572653D25753B68756D69646974793D0F
S3150000539025753B70726573737572653D257500FFE3
S315000053A00A0C000003010000D53D000000000000CB
S315000053B000000000DC070020A454000098550000FF
S315000053C0000100001C0000200F00FFFF000000008D
S315000053D0FFFF0000020200000101010201030104B7
S315000053E00000000000000000392C00000000000052
S315000053F0C053000000000100080100000000010089
S3150000540009010000000001000A010000040000007C
S315000054100F0100000000010000030000000001046D
S315000054200103000000000104020300000400000064
S315000054300005000004000000010500000400000053
S31500005440020500000400000003050000040000003F
S31500005450040500000400000005050000040000002B
S315000054600605000004000000070500000400000017
S315000054700806000004000000000700000500000008
S3150000548001070000050000000207000005000000FB
S3150000549003070000050000000407000000400000AC
S315000054A00907000016000000F45300000B008C01F1
S315000054B08D018E018F01CF0000000000000000006A
S315000054C000000000000000000000000000000000D6
S315000054D000000000000000000000000000000000C6
S315000054E000000000000000000000000000000000B6
S315000054F000000000000000000000000000000000A6
S315000055000000000000000000000000000000000095
